:1000000040EF03F00000000000EF00F000000000EF
:0A0010000000000000000000F3D71C
:10001C000F0E0C6E470E0D6E0D2EFED70C2EFCD750
:06002C00000000001200BC
:06003200000000001200B6
:0A003800210E0D6E0D2EFED71200F2
:100042000001C9BF02D0839E01D0838EC9BD02D0F8
:10005200839C01D0838CC9BB02D0839A01D0838A4E
:10006200C9B902D0839801D08388A5B102D0848413
:1000720001D084948482DCDF8492C9B702D0839E4B
:1000820001D0838EC9B502D0839C01D0838CC9B3C1
:1000920002D0839A01D0838AC9B102D0839801D059
:1000A2008388A5B102D0848401D084948482C0DF85
:0E00B2008492A5A102D0B1DF01D0BDDF120003
:0E00C0000001A591C8C0C9F0BCDFA5811200E7
:1000CE0010D0800E0001C36F1AD0C00EC36F17D0B0
:1000DE00940EC36F14D0D40EC36F11D0800EC36FA5
:1000EE000ED00001C351010AECE0C351020AEDE04B
:1000FE00C351030AEDE0C351040AEDE0EFD7C40586
:10010E00006EC351002600C0C3F000C0C9F092DFDC
:10011E00A591C76BC751C525E96E000EC621EA6EC3
:10012E00EE520BE0C751C525E96E000EC621EA6EF0
:0E013E00EECFC8F0BEDFC72BEDD7A5811200B3
:10014C000001C56BC551C325E96E000EC421EA6ED2
:10015C00EE520BE0C551C325E96E000EC421EA6EC8
:0C016C00EECFC8F0A7DFC52BEDD71200C6
:0E017800ACB202D00000FCD7C2C0ADFF120036
:10018600B0D0010E006E000E016EFCD0020E006EA5
:10019600000E016EF7D0010E0001C36F0A0EC46F88
:1001A6004D0EC56F000EC66F8FDF010EC36F0A0EB0
:1001B600C46F570EC56F000EC66F86DF6B0EC36F1A
:1001C600000EC46FC0DF030E006E000E016EDAD0A3
:1001D600040E006E000E016ED5D0050E006E000EE8
:1001E600016ED0D0010EC36F0A0EC46F610EC56FCB
:1001F600000EC66F69DF010EC36F0A0EC46F5C0E78
:10020600C56F000EC66F60DF470EC36F000EC46F6A
:100216009ADF060E006E000E016EB4D0010EC36F9B
:100226000A0EC46F200EC56F000EC66F4DDF010E9D
:10023600C36F0A0EC46F1B0EC56F000EC66F44DF78
:10024600150EC36F000EC46F7EDF070E006E000E24
:10025600016E98D0010EC36F0A0EC46F2A0EC56FC9
:10026600000EC66F31DF010EC36F0A0EC46F440E57
:10027600C56F000EC66F28DF3E0EC36F000EC46F3B
:1002860062DF080E006E000E016E7CD0090E006E55
:10029600000E016E77D00A0E006E000E016E72D04F
:1002A600010EC36F0A0EC46F340EC56F000EC66F03
:1002B6000BDF010EC36F0A0EC46F710EC56F000E01
:1002C600C66F02DF7F0EC36F000EC46F3CDF0B0EDE
:1002D600006E000E016E56D00C0E006E000E016E02
:1002E60051D00001000EA01902E1010E9F19D8B4E9
:1002F60048D7000EA01902E1020E9F19D8B446D7BE
:10030600000EA01902E1030E9F19D8B444D7000EBF
:10031600A01902E1040E9F19D8B45AD7000EA019ED
:1003260002E1050E9F19D8B458D7000EA01902E1B4
:10033600060E9F19D8B456D7000EA01902E1070E73
:100346009F19D8B46BD7000EA01902E1080E9F19A9
:10035600D8B480D7000EA01902E1090E9F1996E0C5
:10036600000EA01902E10A0E9F1995E0000EA019D1
:1003760002E10B0E9F1994E0000EA01902E10C0E8B
:060386009F19AAE012001D
:10038C000F0E956E8190030E0C6E970E0D6E0D2E4A
:10039C00FED70C2EFCD700000000831C006E0F0E45
:1003AC00001600C0BCF081800F0E00140001BA6F63
:1003BC00BB6B000EBB17000EBB6F8192030E0C6E55
:1003CC00970E0D6E0D2EFED70C2EFCD700000000E4
:1003DC00831C006E0F0E001600C0BCF081820F0E45
:1003EC000014036E040E026E03C000F0000E016ECA
:1003FC00025005E0003600900136FF0FFAD70001DD
:10040C000050BA130150BB138194030E0C6E970E5F
:10041C000D6E0D2EFED70C2EFCD700000000831C99
:10042C00006E0F0E001600C0BCF081840F0E00147D
:10043C00036E03C001F0006A0050BA130150BB13E5
:10044C009F6BA06BBD6BBD510C081BE3BDC000F0D6
:10045C00010E016E000E026E005005E00136019097
:10046C000236FF0FFAD70250BB1902E1BA5101183C
:10047C0006E1BDC09FF0000EA06F9F4BA02BBD2BC3
:10048C00E2D7000EA01902E1060E9F1919E0000E2A
:10049C00A01902E1070E9F1913E0000EA01902E14A
:1004AC00030E9F190DE0000EA01902E10B0E9F190F
:1004BC0007E0000EA01902E1080E9F1901E010D010
:1004CC009FC0C2F053DE020E0B6E040E0C6EBA0E01
:1004DC000D6E0D2EFED70C2EFCD70B2EFAD700006E
:0404EC004CDE1200D0
:1004F000FF0E0001A66FFF0EA76FFF0EA86FFF0E85
:0E050000A96FC26A070EC012C08EC280120020
:10050E00969296949598959A959C959E849284949D
:10051E00839E839C839A83987ADD79DD78DD838A46
:10052E00838884827FDD849272DD84827BDD849277
:10053E006EDD848277DD84926ADD8398848272DD3B
:10054E00849265DD84826EDD8492839A838E8482AA
:10055E0069DD84925CDD839E8388848263DD849270
:10056E00839884825FDD849252DD84825BDD849287
:10057E008388848257DD84924ADD8398848252DD9B
:10058E008492838E838C838A838884824BDD8492CB
:08059E003EDD0001A581120001
:1005A6000900F5CFE6FF0006FBE10106F9E11200BE
:0A05B600939093929394956A1200BB
:1005C000780E0001AA6F010EAB6FC20EAC6F000E69
:1005D000AD6F180EB66F060EB76F000EB86F000E37
:1005E000B96F760EB26F060EB36F000EB46F000EC9
:1005F000B56FFF0EAE6FFF0EAF6F000EB06F000E47
:10060000B16FAC8A900EAB6E948E949C9EAA03D070
:08061000AECF00F0FBD7120091
:10061800AECF01F0ABA202D0AB98AB8801C000F01E
:020628001200BE
:10062A0082720B0E0B6E260E0C6E5D0E0D6E0D2E6B
:10063A00FED70C2EFCD70B2EFAD7000000008272D0
:02064A0012009C
:10064C00000E0001C11902E1010EC01908E1590E9A
:10065C00A16F650EA26F730EA36FA46B05D04E0E27
:0A066C00A16F6F0EA26FA36B1200C6
:0A067600000E9EBA010E006E120085
:10068000F7EC03F00001BE6BBF6B95DF0E0EC16E81
:100690002FDF070EB46E9492010EC96FD2DC0C0EE0
:1006A000C96FCFDC34DFB886B06A330EAF6EAC846E
:1006B00087DF010EC36F010EC46F950EC56F000E6C
:1006C000C66F05DD020EC36F010EC46F8B0EC56FC2
:1006D000000EC66FFCDCBEC0C0F0BFC0C1F0B6DF0C
:1006E000020EC36F0A0EC46FA10EC56F000EC66F57
:1006F000EEDC850EC36F000EC46F28DDBCDF005238
:100700002EE08ADF00C0BEF0000E0001BF6F820E37
:100710000C6EDD0E0D6E0D2EFED70C2EFCD70000DC
:100720000000BF517E1802E17D50BE1918E0BEC026
:100730007DF0BFC07EF079DFBEC0C0F0BFC0C1F0A9
:1007400085DF020EC36F0A0EC46FA10EC56F000EC7
:10075000C66FBDDC770EC36F000EC46FF7DC16DE0C
:04076000CDD7FFD71B
:1007EE0010EE15F08A0E006E010E016E640EF66E9E
:0E07FE00070EF76E000EF86ED3EC02F012003C
:06076400202020202000EF
:05076A0053746F7000E4
:0A076F002020202020202020200060
:0A0779002020202020202020200056
:0A078300202020202020202020004C
:06078D00202020202000C6
:030793005570009E
:06079600202020202000BD
:0A079C002020202020202020200033
:0507A6004C65667400C3
:0507AB00446F776E00B1
:0A07B000202020202020202020001F
:0607BA0020202020200099
:0607C00052696768740035
:0607C6002020202020008D
:0207CC0001002A
:0607CE0020202020200085
:0607D4002020202020007F
:0A07DA00436F6E74726F6C4D3A00AD
:0A07E40047756964616E63653A00B1
:020000040030CA
:0D000100021F1EFF8381FF0FC00FE00F40A4
:00000001FF
